:100000000C943E000C945B000C945B000C945B0021
:100010000C945B000C945B000C9462000C945B00ED
:100020000C945B000C945B000C945B000C945B00E4
:100030000C945B000C945B000C945B000C945B00D4
:100040000C945B000C945B000C945B000C945B00C4
:100050000C9433010C945B000C945B000C945B00DB
:100060000C945B000C945B000C945B000C945B00A4
:100070000C945B000C945B000C945B0011241FBE7D
:10008000CFEFCDBFDFE3DEBF18E3A0E0B8E3E2EFE0
:10009000F2E102C005900D92AA32B107D9F728E328
:1000A000AAE2B8E301C01D92AE34B207E1F70E94A4
:1000B000A2000C9474090C9400000E948B010E9411
:1000C000B60008951F920F920FB60F9211242F932E
:1000D0003F934F935F936F937F938F939F93AF93D0
:1000E000BF93EF93FF930E94120182E0809343013C
:1000F000FF91EF91BF91AF919F918F917F916F9100
:100100005F914F913F912F910F900FBE0F901F90D5
:10011000189580E090E00E942401807880932A382E
:10012000882311F00F9A08950F98089578940E94EB
:10013000DE0080912C38813021F410922C380E94FE
:10014000890008950E945D000E949600FDCF81E025
:1001500080932D380895E0E4F1E0918192FDFDCF88
:1001600090E080934A0190934B01089580E20E94B1
:10017000AB00E0E3F4E08081877F80838081887F2B
:100180008460808385E198E30E94300882E498E3EC
:100190000E94760860E070E085E198E30E94E8083C
:1001A00060E070E085E198E30E9407094DE358E3C1
:1001B00060E080E098E30E942D02089580912E383F
:1001C000813051F467EA70E085E198E30E9480088D
:1001D000811102C010922E3880912D38813009F59E
:1001E00010922D380E94B20681110AC080E098E377
:1001F0000E944C02882339F082E080932B3803C0A0
:1002000081E080932B38E0910038F09101388081B3
:10021000882324F481E080932E38089581E0809330
:100220002C38089580913C388F5F843118F4809386
:100230003C38089510923C3881E080932E3884E158
:1002400090E00E94220208959C01220F331F820F2A
:10025000931F880F991FE0910438F0910538E80F3B
:10026000F91F808108951F920F920FB60F921124EB
:100270002F933F934F935F936F937F938F939F93AE
:10028000AF93BF93EF93FF930E944809FF91EF91C3
:10029000BF91AF919F918F917F916F915F914F919E
:1002A0003F912F910F900FBE0F901F90189580E0F7
:1002B000089540E068ED81E690E00E949C0180E0B6
:1002C0000895789480E00895E0E1F4E0808188600A
:1002D0008193E83184E0F807C9F7E0E3F4E0808136
:1002E00088608193E83384E0F807C9F7E0E5F4E03B
:1002F000808188608193E83584E0F807C9F7089524
:100300002398E3E3F4E08081877F80832A98229A10
:100310000E94AF0108950E9464010F98079A0E94FD
:1003200059010E94A0010E9480010E9461010E9467
:10033000AD010E9457010895FC0164BF40830895F8
:10034000E0E4F1E081818111FDCFE0E4F1E081E8BA
:10035000808382E0828380E0089580E00895E0E079
:10036000F8E083E896E08087918780EC868380E0E0
:100370000895CF92DF92FF920F931F93CF93DF9355
:10038000EC01AE81BF81EB01CC0FDD1FC60FD71F83
:10039000CA0FDB1FFA80FC0144815581E6E0E69F2D
:1003A0009001E79F300D11248A01020F131FF801FD
:1003B00022813381F90121813281F8010481158183
:1003C000201B310BE8812E1B3109EC01EA81FB81F6
:1003D00000811181FA0140E050E04017510739F1E6
:1003E00046175707F9F012968C911297F8121AC017
:1003F000808185588230E8F0C480D58082819381E5
:10040000EC0189819A81C816D90660F48C199D097E
:10041000CC91D0E0C817D90728F48C1B9D0B281766
:10042000390738F04F5F5F4F13963696D6CF80E08E
:1004300001C081E0DF91CF911F910F91FF90DF907C
:10044000CF90089520912F3830913038820F931F2C
:1004500080932F389093303808950097D9F0411544
:100460005105C1F026E0629FB0011124DC01149611
:10047000ED91FC911597E60FF71F21E0208314966C
:100480008D919C911597FC01E60FF71F42835383D2
:1004900080E008958BE008952F923F924F925F92F3
:1004A0006F927F928F929F92AF92BF92CF92DF9284
:1004B000EF92FF920F931F93CF93DF93009709F46E
:1004C0007DC3EC01A12CB12C812C912C212CD12CA1
:1004D00033E0C32E45E8642E56E8752E67E0362ECD
:1004E00072E0472EE8E05E2EEA81FB8180819181F7
:1004F0008816990608F0A5C17501EE0CFF1C0C8149
:100500001D810E0D1F1DD8018C91843009F4A2C0ED
:1005100038F4823001F108F049C0813059F08AC1C5
:10052000853809F4C2C0863809F4F6C0873009F06E
:1005300081C137C1D8011296ED91FC91139780814A
:100540008E7109F069C14C928C819D81FC01EE0D88
:10055000FF1D518261C1F8012181222329F102800E
:10056000F381E02D253020F081819281D8010EC0E9
:10057000D80114968D919C911597418152818417D1
:10058000950769F04817590730F4019714968D9331
:100590009C93159704C00196F8018483958321509C
:1005A000D80111962C9338C1F80131C1D8011496A5
:1005B0002D913C91159712968D919C911397DC018A
:1005C00011964D915C9112972417350709F432C1A9
:1005D0008E819F8142175307E0F4241B350BDC0109
:1005E000AA0DBB1D8C9190E0058002C09595879562
:1005F0000A94E2F799272817390708F41BC1848168
:10060000882309F417C1F8013082EA81FB81248133
:100610001AC0FC01EA0DFB1D421B530B808190E0C8
:100620004817590708F406C18281882331F0B401C4
:10063000CE010E94B9018111FDC0E4E0D801EC9324
:10064000EA81FB8122818C819D81FC01EE0DFF1DE1
:100650002183E2C0D80114962D913C9115971296F2
:10066000ED91FC911397818192818217930708F491
:10067000D7C0EE81FF81EA0DFB1D821B930B208109
:1006800030E02817390708F0AFC08281882331F0A5
:10069000B401CE010E94B9018111CCC0F801818161
:1006A000882309F467C08150B6C0A881B9818085CC
:1006B00013968C93EC81FD81EE0DFF1D44815581D5
:1006C000A281B38111968D919C9112978417950701
:1006D000C0F0AE81BF81AA0DBB1D6C91262F30E00A
:1006E00011967C917F5F02C0359527957A95E2F748
:1006F000841B950B621B262F30E02817390708F45E
:1007000097C07082EA81FB8122818C819D81FC01EE
:10071000EE0DFF1D218342C0D80114966D917C918E
:1007200015971296ED91FC9113972181328126172E
:10073000370758F411968C911197811102C0CC9211
:1007400077C08150F801818373C0EE81FF81EA0D8B
:10075000FB1D8081482F50E091819F5F02C055951D
:1007600047959A95E2F7261B370B841B90E082177A
:10077000930760F4D8016C92EA81FB8123818C811C
:100780009D81FC01EE0DFF1D218352C0F801818186
:10079000811102C0C0824CC08150818322242394E5
:1007A0003BC0D80114962D913C91159712968D91CE
:1007B0009C911397DC0111968D919C911297821751
:1007C000930768F5281B390BAE81BF81AA0DBB1DAD
:1007D0008C9190E0058002C0959587950A94E2F788
:1007E00099272817390718F4F801C0821AC0D801D0
:1007F00011968C91119781110CC081E08C938C81A2
:100800009D81FC01EE0DFF1D0280F381E02DC08271
:1008100011C08150F8018183DD24D3940BC0D8012D
:10082000CC928C819D81FC01EE0DFF1D118202C0D6
:1008300022242394BFEF8B1A9B0AE3E0AE0EB11C77
:1008400053CEE881F981808187FF23C040E050E0EA
:1008500020E030E0EA81FB8180819181281739070F
:1008600098F4EC81FD81E40FF51FA281B3818C9196
:1008700080FD05C09081977F11F081608C932F5F80
:100880003F4F4A5F5F4FE6CFE881F98180818F77E4
:100890008083D11007C0E881F98121106FC0808169
:1008A0008E7F6EC0EA81FB8181858823A1F3E88178
:1008B000F981808180688083EA81FB818185813034
:1008C00051F740E050E020E030E096E0D92EEA8198
:1008D000FB816081718126173707E8F60C811D8145
:1008E000FA01EE0FFF1FE00FF11F8081982F977F15
:1008F000A1F1853811F08330B1F5EE80FF80D7018A
:10090000A40FB51F1296BC90BB2039F180E090E097
:10091000C12C86179707F8F428173907D1F0D89E0D
:10092000D001D99EB00D1124A00FB11FAC91A430FD
:1009300011F0A63871F4DC01AA0FBB1FA80FB91F74
:10094000AE0DBF1D1296AC91BA1203C0CB01CC24E0
:10095000C3940196DECFC11006C00280F381E02D62
:1009600080818E7F05C00280F381E02D80818160CF
:1009700080832F5F3F4F4D5F5F4FA9CF80818160A4
:10098000808380912F3890913038E881F9812181DE
:100990003281A90148535F4F4817590738F4821B29
:1009A000930BAA24A394A3E0BA2E44C08217930702
:1009B00010F080E004C1821B930B0197893C9105E4
:1009C000C0F3EFCF885C9109E881F9812181328100
:1009D00028533F4F218332832381211196C02481E4
:1009E000222311F021502483E881F98125812223DB
:1009F00011F0215025838A809B80D40116962C917A
:100A0000169721111BC08A809B80F4012781211138
:100A100048C0EA81FB812381222361F020E030E09D
:100A2000A0E0B0E0EA81FB8140815181A417B507C5
:100A300008F46EC0893C910528F6BBCF0881198166
:100A4000F80124812111DFCFED90FC9060E070E08F
:100A500040E050E04E155F05F1F0EC81FD81E60FBE
:100A6000F71F2081233011F0283081F42481358153
:100A7000C280D380D6011196CD90DC9012972C15B0
:100A80003D0520F42F5F3F4F248335834F5F5F4F39
:100A90006A5F7F4FDFCFF4012681D80114962C9333
:100AA000B2CF08811981D80115962C912111B1CFAF
:100AB000E080F18060E070E040E050E04E155F05BE
:100AC000F1F0EC81FD81E60FF71F2081233011F05A
:100AD000283081F424813581C280D380D6011196DB
:100AE000CD90DC901297C216D30620F42150310924
:100AF000248335834F5F5F4F6A5F7F4FDFCFF40101
:100B00002781D80115962C9384CF2150238381CF40
:100B1000A901440F551FEC81FD81E40FF51F608191
:100B2000653809F047C06181662319F0615061831F
:100B300041C0A0826C817D81FB01E40FF51F028022
:100B4000F381E02DB082EE81FF81E20FF31FD280AE
:100B5000DD2081F140E050E000E010E0EA81FB811F
:100B6000608171810617170728F5EE81FF81E40F78
:100B7000F51F6281D61219C0BA01660F771FEC818A
:100B8000FD814F01860E971EF401E280F380F7018C
:100B9000F080F0FE0AC0F401A082EC81FD81E60F36
:100BA000F71F0280F381E02DB0820F5F1F4F4D5F72
:100BB0005F4FD4CF11962D5F3F4F34CF8BE0DF9145
:100BC000CF911F910F91FF90EF90DF90CF90BF904A
:100BD000AF909F908F907F906F905F904F903F90DD
:100BE0002F9008958091343890913538A0914A38EB
:100BF000B0914B38ED91FC9111974081518125E0E6
:100C0000289FB001299F700D112420E030E0841747
:100C10009507A8F41496ED91FC911597E20FF31F38
:100C2000E60FF71FE0812B5F3F4FE0FD02C001960A
:100C3000EECF809334389093353880E00895109249
:100C400034381092353881E00895BC01E0914A387B
:100C5000F0914B389C0183E0220F331F8A95E1F716
:100C6000A281B381A20FB31F12969C911297139683
:100C70008C9190932A0680932B06A281B381A20FB8
:100C8000B31F9C9111968C91909326068093270612
:100C900095E0969FA001979F500D1124A481B581E6
:100CA000A40FB51F13968C9180931A06A481B58169
:100CB000A40FB51F14968C9180931B06A481B58157
:100CC000A40FB51F8C9181FD9C9384819581DC01DB
:100CD000A40FB51F8C918C7169F4A281B381A20F0E
:100CE000B31F1696AC91A295AF70B0E0A451BD466B
:100CF0008C9101C08FE380931C06A281B381A20F67
:100D0000B31F14968C918B3110F48C5F01C08FE16E
:100D100080930506A281B381A20FB31F17968C9111
:100D200080930106A281B381A20FB31F15968C9107
:100D300082958F708093190682819381FC01E20F66
:100D4000F31F85818F708061809302068091180661
:100D500083608093180681E88093000681E0809389
:100D6000080608953F924F925F926F927F928F9202
:100D70009F92AF92BF92CF92DF92EF92FF920F932A
:100D80001F93CF93DF9380913338882309F448C1B0
:100D9000A0914A38B0914B38C0904C38D0904D3823
:100DA00000E010E060E070E0E12CF12C80E0332402
:100DB0003394D1E84D2E88248A94992493946D908D
:100DC0007C901197F30120813181E216F30608F03F
:100DD00023C1E601299139916E011496ED91FC91A0
:100DE0001597E60FF71F40814C7150E056954795D7
:100DF000569547954115510521F041305105B9F0FF
:100E000002C11296CD91DC911397C00FD11F4E8174
:100E10004F709F81491710F4941B01C090E002C0ED
:100E2000369527959A95E2F721833283EDC0129685
:100E30004D915C911397400F511FEA010F8002C042
:100E4000369527950A94E2F721833283A380B480F4
:100E50002115D2E03D0720F02F5F314091E005C021
:100E6000A401421B530B9A0190E0E3015A80D0E4A5
:100E70005D1205C036952795992319F009C099236D
:100E800039F04FEFA416B40631F440828EE007C06B
:100E90007724739401C0712C2A30310590F4149694
:100EA000ED91FC911597E60FF71F908197FF308227
:100EB0001496ED91FC911597E60FF71FA382B4826B
:100EC000A3C0E501CD2FDD27C295CF709C2FA501D2
:100ED00044275F70652EA501407F552752954295A6
:100EE0004F7045275F7045275A2D5F70A52EC4307F
:100EF00030F09370D695C795D695C7959C0F711015
:100F00003CC050E8550D523010F456E007C053E095
:100F100005C0951768F49F5F2F5C3109203D3105AE
:100F2000C0F706C0CFE06C1649F063942551310933
:100F300026313105B8F7DFE06D120EC0951720F4A9
:100F40009F5FD5E06D2E08C0CFE06C2E05C04F30FE
:100F500049F04F5F2250310923303105C0F74F303F
:100F600009F065C04FE0641681F1639445E05FC00D
:100F7000992361F091502F5C3109203D3105C0F774
:100F800005C0662041F06A942551310926313105AA
:100F9000C0F761100DC0992321F091505AE0652EE1
:100FA00007C0612C05C0442341F041502250310953
:100FB00023303105C0F7411110C06620E9F16A9471
:100FC0004AE023303105C8F608C059132FC023303A
:100FD000310540F14FE0A42E4FE0943018F0990F06
:100FE000990F9950C0E14C9FA001112456294A291C
:100FF000C92FD0E0DC2FCC27D295D07F4C2B5D2B96
:101000004383548301C0FFCFDFEFED1AFD0A6B5F0E
:101010007F4F085F1F4FD3CE92E0909333380EC0BE
:1010200083E00CC04FE02FE0A22ED7CF4FE023305B
:10103000310508F073CFD1CF40E0CFCFDF91CF9112
:101040001F910F91FF90EF90DF90CF90BF90AF90E6
:101050009F908F907F906F905F904F903F900895FA
:10106000CF93DF930097E1F1DC01ED91FC91A0813A
:10107000B18160E070E040E050E020E030E04A17ED
:101080005B0799F0EC01EA81FB81E60FF71FC08155
:10109000D1810280F381E02DEC2BFD2B2E2B3F2BF9
:1010A0004F5F5F4F685F7F4FEACF21153105D1F069
:1010B00080913338811108C0209322063093230693
:1010C00081E0809333380AC080912206822B80937E
:1010D000220680912306832B8093230680E003C0A1
:1010E0008BE001C082E0DF91CF910895009731F04D
:1010F00080934C3890934D3880E008958BE00895AC
:1011000061157105A1F1009791F1209133382223E7
:1011100081F1243081F180934A3890934B38609369
:1011200031387093323810921806DC01ED91FC9141
:101130002281203439F420EC2093180620911806DF
:10114000206205C0203841F42091180628622093BF
:10115000180610921E0613C0213879F42091180643
:1011600028622093180626E820931E0608C08BE00C
:10117000089583E0089581E0089582E00895109233
:101180000006DC01ED91FC918481803108F080E162
:101190008093030681E080930B0680930A06809378
:1011A000283810923438109235380E94F205811197
:1011B0000BC084E080933338809134389091353877
:1011C0000E94250680E0089582E0809333380895D8
:1011D0000097C9F0DC01ED91FC91119720813181DC
:1011E0002617370790F045E0469F9001479F300D46
:1011F00011241496ED91FC911597E20FF31F81E0F5
:10120000808380E008958BE0089582E00895FC01DA
:10121000892BD1F1A081B1818D919C911197861775
:101220009707A0F112969C910480F581E02D9034EF
:1012300059F485E0869FD001879FB00D1124AE0F31
:10124000BF1F84E392E00DC09058923080F485E097
:10125000869FD001879FB00D1124AE0FBF1F87E678
:1012600095E013968D939C93149780E001C082E0E3
:1012700095E0969F9001979F300D1124E20FF31F88
:1012800090819260908308958BE0089582E00895A4
:10129000109200064091100650911106809134384A
:1012A000909135389C01220F331FE0914C38F0911A
:1012B0004D38E20FF31F40835183019680933438F9
:1012C000909335380E94F205811109C084E0809323
:1012D000333880913438909135380C942506E0915C
:0C12E0003138F09132380994F894FFCFB7
:0612EC003F1C0B0503018D
:1012F20036380B3844380838140100010004000560
:10130200001405140123381B383D3800002000006A
:0A1312000300040100803000010018
:00000001FF
