:100000000C943E000C9448000C9448000C9448005A
:100010000C9448000C9448000C9448000C94480040
:100020000C9448000C9448000C9448000C94480030
:100030000C9448000C9448000C9448000C94480020
:100040000C9448000C9448000C9448000C94480010
:100050000C9448000C9448000C9448000C94480000
:100060000C9448000C9448000C9448000C944800F0
:100070000C9448000C9448000C94480011241FBEB6
:10008000CFEFCDBFDFE3DEBF0E944C000C949100A8
:100090000C9400000C9483000E944A000F9A2AE2FC
:1000A0008CE29AE0215080409040E1F700000F98E8
:1000B0002AE28CE29AE0215080409040E1F7000073
:1000C000EDCF80E0089580E0089580E00895E0E1BC
:1000D000F4E0808188608193E83184E0F807C9F713
:1000E000E0E3F4E0808188608193E83384E0F807FE
:1000F000C9F7E0E5F4E0808188608193E83584E029
:10010000F807C9F708950E9467000F98079A0E94A0
:1001100063000E9465000E948F000C94610080E0E3
:060120000895F894FFCFE2
:00000001FF
